:020000040800F2
:100000000050002011100008591000085910000875
:10001000591000085910000859100008000000008D
:10002000000000000000000000000000591000085F
:10003000591000080000000059100008591000086D
:1000400059100008591000085910000859100008EC
:1000500059100008591000085910000859100008DC
:1000600059100008591000085910000859100008CC
:1000700059100008591000085910000859100008BC
:1000800059100008591000085910000859100008AC
:10009000591000085910000859100008591000089C
:1000A000591000085910000859100008591000088C
:1000B000591000085910000859100008591000087C
:1000C000591000085910000859100008591000086C
:1000D000591000085910000859100008591000085C
:1000E00059100008591000085910000800000000BD
:1000F0000000000000000000000000000000000000
:0C01000000000000000000005FF808F1A3
:10010C0010B5054C237833B9044B13B10448AFF345
:10011C0000800123237010BD540400200000000057
:10012C000C01000808B5034B1BB103490348AFF39E
:10013C00008008BD00000000580400200C010008DD
:10014C003A4B3B4A196841F00101196059680A4061
:10015C005A601A6822F0847222F480321A601A688B
:10016C0022F480221A605A6882B022F4FE02002126
:10017C004FF41F005A609860009101911A6842F484
:10018C0080321A601A4603E0009BB3F5A06F09D0C9
:10019C00136803F400330193009B01330093019B1C
:1001AC00002BF1D0214B1B6813F4003318BF012333
:1001BC000193019B012B05D01E4B4FF000629A60FE
:1001CC0002B070471C4A194B116841F010011160C4
:1001DC00116821F003011160116841F002011160F6
:1001EC005A685A605A685A605A6842F480625A6077
:1001FC005A6822F47C125A605A6842F4E8125A6027
:10020C001A6842F080721A601A689201FCD559681B
:10021C00064A21F003015960596841F00201596006
:10022C00536803F00C03082BFAD1C5E70010024009
:10023C000000FFF800ED00E000200240114A536876
:10024C0003F00C03082B0ED153685168C3F383439E
:10025C00C90303F1020310D5526892030DD40A4A64
:10026C0002FB03F300E0084B064A08495268C2F34C
:10027C0003128A5CD3400B617047054A02FB03F3FF
:10028C00F2E700BF0010024000127A0000000020CC
:10029C0000093D0008B52F4B98421CD02E4B9842BC
:1002AC0023D02E4B98422AD02D4B984231D02D4B37
:1002BC00984206D02C4B984241D02C4B984232D0CD
:1002CC0008BD0121402000F077FC00214020BDE852
:1002DC00084000F071BC0121042000F06DFC0021ED
:1002EC000420BDE8084000F067BC0121082000F0A4
:1002FC0063FC00210820BDE8084000F05DBC012132
:10030C00102000F059FC00211020BDE8084000F03E
:10031C0053BC0121202000F04FFC00212020BDE81F
:10032C00084000F049BC01214FF4807000F044FCFF
:10033C0000214FF48070BDE8084000F03DBC012165
:10034C00802000F039FC00218020BDE8084000F03E
:10035C0033BC00BF00080140000C014000100140FC
:10036C000014014000180140001C01400020014015
:10037C0008B50121084600F01FFC00210120BDE852
:10038C00084000F019BC00BF2DE9F041CD78EB0618
:10039C0048BF8B78098805F00F0748BF1F4311F041
:1003AC00FF0F21D0066800234FF0010C4FF00F080F
:1003BC0002E00133082B16D00CFA03F232EA0104E6
:1003CC00F7D19C0008FA04FE26EA0E0607FA04F49C
:1003DC00282D46EA040632D0482D03F1010308BF4C
:1003EC000261082BE8D10660FF2924D9466808234E
:1003FC004FF0010C4FF00F0802E00133102B19D015
:10040C000CFA03F434EA0102F7D103F18042083A02
:10041C00920008FA02FE26EA0E0607FA02F2282DCE
:10042C0046EA020609D0482D03F1010308BF046116
:10043C00102BE5D14660BDE8F0814461DDE74261F7
:10044C00B7E700BF4FF6FF710222042301808270D0
:10045C00C37070478368194214BF01200020704795
:10046C00806880B2704700BFC368194214BF012076
:10047C0000207047C06880B2704700BF01617047B0
:10048C00416170470AB9416170470161704700BF13
:10049C00C160704741F480338361816183618369FA
:1004AC0083697047064A136810B44FF68074234072
:1004BC00194341EA001111605DF8044B704700BF0D
:1004CC0000000140014B1860704700BF1C00204227
:1004DC000028194B00F44012B4BFDB695B68B2F51D
:1004EC00401F30B484B21ED0C20213D5C0F30345F2
:1004FC000322AA4023EA020343F0706319B1420DB0
:10050C001201944023430C4A0028B4BFD3615360BA
:10051C0030BC7047420D120104FA02F223EA0203C6
:10052C0043F07063EAE7044D6A6822F0706223F0CE
:10053C0070636A60E2E700BF0000014001F0FC0359
:10054C0003F1804303F5803301F0030110B49A6882
:10055C0089000F248C4022EA04029A609A685DF8A4
:10056C00044B00FA01F1114399607047014B18607C
:10057C00704700BFDC00204208B50D4B98424FF08D
:10058C0001010AD04FF4800000F022FB00214FF44F
:10059C008000BDE8084000F01BBB4FF4001000F0D9
:1005AC0017FB00214FF40010BDE8084000F010BB11
:1005BC0000540040F0B5054687B001A80E46AC8843
:1005CC0000F090FA03982C493368DFF8B8C0A1FB0F
:1005DC00002124F03F042404890C240C8FB23C43EA
:1005EC00AC802A8822F001021204120C63452A8086
:1005FC001BD85B00B0FBF3F39BB20137042B38BF65
:10060C0004232F84AB832A88B18874891B4B3089CF
:10061C0042F001022A802F88B2893B4021430B43D0
:10062C0002432B802A8107B0F0BDF4884BF6FF7291
:10063C0094421AD003EB830303EB8303B0FBF3F375
:10064C009BB243F48043C3F30B020AB943F001039A
:10065C004FF496720A4802FB01F1A0FB01218909B3
:10066C00013143F400432984CCE703EB4303B0FB93
:10067C00F3F39BB2E7E700BF83DE1B43F5FBFFFF01
:10068C00D34D6210A086010041F288330449036007
:10069C0000224FF48043C0E901128381704700BFF0
:1006AC000000FFBF038829B923F001031B041B0CB6
:1006BC000380704743F0010303807047838829B996
:1006CC0023F400631B041B0C8380704743F400630A
:1006DC0083807047838829B923F480531B041B0C37
:1006EC008380704743F4805383807047038829B913
:1006FC0023F480731B041B0C0380704743F480733A
:10070C0003807047038829B923F400731B041B0C66
:10071C000380704743F4007303807047038829B942
:10072C0023F480631B041B0C0380704743F4806329
:10073C000380704783899BB201F0FE0123F0FE0316
:10074C000B438381704700BF838929B923F00103D0
:10075C001B041B0C8381704743F00103838170479A
:10076C00038829B923F040031B041B0C038070473A
:10077C0043F040030380704783881AB923EA0101D0
:10078C008180704719438180704700BF0182704798
:10079C00008AC0B2704700BF22B901F0FE0189B2D5
:1007AC000182704741F0010189B20182704700BF9C
:1007BC0082B0002301930190019B19440191019B8C
:1007CC00188802B0704700BF038819B9C3F30E0331
:1007DC000380704743F40043038070470388B1F5EE
:1007EC00006F1BBF23F400631B0443F400631B0C5A
:1007FC00038070470388B1F5005F1BBF23F40053DF
:10080C001B0443F400531B0C03807047038829B965
:10081C0023F480531B041B0C0380704743F4805358
:10082C0003807047FFF7DABF038829B923F0200350
:10083C001B041B0C0380704743F02003038070479C
:10084C00008B000A704700BF038829B923F01003FE
:10085C001B041B0C0380704743F01003038070478C
:10086C00038829B123F080031B041B0C0380704701
:10087C0043F0800303807047838BB1F5804F1DBF1D
:10088C0023F480431B041B0C43F480438383704785
:10089C00838A028B21F07F4043EA02431840401ABE
:1008AC00B0FA80F040097047838A008B43EA00401D
:1008BC0020F07F40704700BF82B000230A0F0093E6
:1008CC00019301900092009B21F07F4153B1019B59
:1008DC0014330193019B1B680B4214BF01200020B1
:1008EC0002B07047019B1833090C0193F2E700BF6B
:1008FC00C94389B2818270478388808A08409BB241
:10090C0006D003F4E06313EA114314BF0120002066
:10091C00704700BFC94389B2818270470D4B0E4AA4
:10092C00196841F00101196059680A405A601A6847
:10093C0022F0847222F480321A601A6822F4802227
:10094C001A605A684FF41F0122F4FE025A60996033
:10095C00704700BF001002400000FFF80C4B1A68F3
:10096C0022F480321A601A68B0F5803F22F480229B
:10097C001A6008D0B0F5802F04D11A6842F4A02276
:10098C001A60704770471A6842F480321A607047D8
:10099C000010024082B00023094A0193136813F43B
:1009AC00003F019B03F101030193019B02D1B3F5BD
:1009BC00A06FF3D1024B1868C0F3404002B07047EF
:1009CC0000100240034A136823F0F80343EAC00006
:1009DC001060704700100240014B1860704700BF58
:1009EC0000004242034A536823F47C131943014329
:1009FC005160704700100240014B1860704700BFF7
:100A0C0060004242034A536823F0030318435060CA
:100A1C00704700BF00100240024B586800F00C00F9
:100A2C00704700BF00100240034A536823F0F003E4
:100A3C0018435060704700BF00100240034A5368CF
:100A4C0023F4E06318435060704700BF001002406D
:100A5C00034A536823F4605343EAC0005060704764
:100A6C0000100240044A137819B923EA00001070F0
:100A7C00704718431070704709100240014B186002
:100A8C00704700BFD8004242034A536823F44043E6
:100A9C0018435060704700BF00100240064B002204
:100AAC0001281A701A7005D0042802D105221A7078
:100ABC00704770471870704720100240014B186047
:100ACC00704700BF80044242024A136A1843106206
:100ADC00704700BF00100240014B1860704700BF08
:100AEC003C0442421E4A536803F00C03082B10B41A
:100AFC000FD153685168C3F38343C90303F1020355
:100B0C0029D55268920326D4164A02FB03F30360DC
:100B1C0001E0144B03601249134A4C68C4F30314EC
:100B2C00145DE34043604C68C4F30224145D23FA63
:100B3C0004F484604C68C4F3C224145DE340C360C5
:100B4C0049685DF8044BC1F381310A44127CB3FB54
:100B5C00F2F303617047054A02FB03F30360DAE723
:100B6C000010024000127A001400002000093D0021
:100B7C00044A536919B923EA0000506170471843BD
:100B8C005061704700100240044A936919B923EA76
:100B9C00000090617047184390617047001002404C
:100BAC00044AD36919B923EA0000D061704718438D
:100BBC00D061704700100240044AD36819B923EA87
:100BCC000000D06070471843D0607047001002409E
:100BDC00044A136919B923EA0000106170471843DD
:100BEC001061704700100240014B1860704700BF45
:100BFC0040044242014B1860704700BF4C00424217
:100C0C00014B1870704700BF071002404309012BBD
:100C1C000BD0022B094B0CBF1B6A5B6A00F01F0048
:100C2C0023FA00F000F001007047044B1B6800F041
:100C3C001F0023FA00F000F0010070470010024082
:100C4C00024A536A43F080735362704700100240AB
:100C5C00034B9B68184214BF01200020704700BF53
:100C6C0000100240014B1870704700BF0A10024080
:100C7C0030B5012187B00846FFF786FF012102201D
:100C8C00FFF726FC01214FF40010FFF789FF01212B
:100C9C000820FFF779FF124C124803221C2301A9EC
:100CAC004FF44075ADF804508DF806208DF80730E0
:100CBC000D4DFFF769FB0D4B02934FF080624FF423
:100CCC00804320460121CDE90352ADF81430FFF7E3
:100CDC00E9FC204602A9FFF76DFC07B030BD00BF50
:100CEC0000540040000C01400000FFBFA086010032
:100CFC0070B505460E461748174C0121FFF7F6FC58
:100D0C0021461448FFF7C4FD0028F9D031460022D3
:100D1C001048124CFFF740FD21460E48FFF7B8FD76
:100D2C000028F9D029460B480D4CFFF72FFD214622
:100D3C000848FFF7ADFD0028F9D00648084D012101
:100D4C000446FFF7DFFC29462046FFF7A1FD0028EB
:100D5C00F9D070BD00540040010003008200070070
:100D6C008400070038B5104C237843F00403054683
:100D7C004E2118462370FFF7BBFF322000F0E6F837
:100D8C00207840EA0510C0B24E21FFF7B1FF23785E
:100D9C0003F0FB0318464E212370FFF7A9FF322006
:100DAC00BDE8384000F0D2B87004002010B50D4AF0
:100DBC000446107871B140F0010318464E211370AF
:100DCC00FFF796FF2009FFF7CDFF2046BDE8104046
:100DDC00FFF7C8BF00F0FE0318464E211370FFF753
:100DEC0087FFEFE7700400200121FFF7DFBF00BF92
:100DFC0003291DD8DFE801F017100902543060F008
:100E0C007F00C0B20021FFF7D1BF143060F07F002B
:100E1C00C0B20021FFF7CABF403060F07F00C0B203
:100E2C000021FFF7C3BF40F080000021FFF7BEBFD9
:100E3C00704700BF10B50F2000F06EF80320FFF7CD
:100E4C0091FF042000F068F80320FFF78BFF64206B
:100E5C0000F07CF80320FFF785FF012000F05CF820
:100E6C000220FFF77FFF012000F056F80021282018
:100E7C00FFF79CFF012000F04FF800210C20FFF73A
:100E8C0095FF012000F048F80C4C00210620FFF7DC
:100E9C008DFF012000F040F8237843F0080318463A
:100EAC004E212370FFF724FF237803F0FD032370FA
:100EBC0018464E21BDE81040FFF71ABF7004002001
:100ECC0008B501200021FFF771FF40F2DC50BDE8AE
:100EDC00084000F03BB800BF10B50446007830B1B4
:100EEC000121FFF763FF14F8010F0028F8D110BDA2
:100EFC0000F00700C00038B540F040000D4600215E
:100F0C00FFF754FF6C1E073514F8010F0121FFF792
:100F1C004DFFAC42F8D138BD10B586B0044601A8DF
:100F2C00FFF7E0FD029B084AA2FB03235B0B04FBCB
:100F3C0003F30093009B2BB1009B013B0093009BA0
:100F4C00002BF9D106B010BD5917B7D110B586B02A
:100F5C00044601A8FFF7C6FD029B084AA2FB032327
:100F6C009B0D04FB03F30093009B2BB1009B013BF7
:100F7C000093009B002BF9D106B010BD6BCA5F6BC0
:100F8C0000B583B0FFF774FEFFF754FFFFF798FF2F
:100F9C0000210320FFF72CFF1748184CFFF79CFF8C
:100FAC0001210320FFF724FF1548FFF795FF0121CE
:100FBC000920FFF7E9FD4FF480451022032301A916
:100FCC002046ADF804508DF807208DF80630FFF759
:100FDC00DBF94FF480412046FFF750FA4FF4FA70DA
:100FEC00FFF79AFF20464FF48041FFF749FA4FF480
:100FFC00FA70FFF791FFECE7C0110008000C0140FC
:10100C00CC110008002103E00B4B5B58435004311A
:10101C000A480B4B42189A42F6D30A4A02E00023C4
:10102C0042F8043B084B9A42F9D3FFF789F800F0D9
:10103C000FF8FFF7A5FF7047FC1100080000002017
:10104C00540400205404002098040020FEE7000003
:10105C0070B50D4E0D4D761BB61006D00024013424
:10106C0055F8043B9847A642F9D1094E094D761B19
:10107C0000F0ACF8B61006D00024013455F8043B4F
:10108C009847A642F9D170BDF0110008F011000884
:10109C00F8110008F0110008024B13B1024800F0DF
:1010AC0005B8704700000000C51000080023014679
:1010BC001A46184600F01EB838B50A4C0A4D641B87
:1010CC00A4100AD004F18043013B05EB8305013CDD
:1010DC0055F804399847002CF9D1BDE8384000F098
:1010EC007BB800BFFC110008F8110008704700BF66
:1010FC00704700BF2DE9F8432B4D064628689846EB
:10110C000F469146FFF7F2FF284B1C68D4F8483184
:10111C00002B3DD05A681F2A0DDC02F1010C16BBC6
:10112C000232C3F804C0286843F82270FFF7E0FFCE
:10113C000020BDE8F8831E4B7BB34FF4C870AFF3AF
:10114C000080034648B3D4F848210021C0E90021AF
:10115C004FF0010CC4F848010A46C0F88811C0F8D9
:10116C008C11002EDCD003EB82010124C1F8889095
:10117C00D3F8880194402043022EC3F88801C1F8AB
:10118C000881CDD1D3F88C110C43C3F88C41C7E73F
:10119C0004F5A673C4F84831BCE72868FFF7A8FF2C
:1011AC004FF0FF30C5E700BF50040020D4110008F9
:1011BC000000000042616C6C2D506C617465000085
:1011CC0050726F6A6563740028000020F8B500BF88
:1011DC00F8BC08BC9E467047F8B500BFF8BC08BC0C
:0411EC009E46704764
:0811F000A51000083101000800
:0411F8000D010008DD
:1011FC0000000000000000000102030406070809BB
:10120C0000A24A04000000000102030401020304CE
:10121C000607080902040608000000001403002059
:10122C007C030020E403002000000000000000000C
:10123C0000000000000000000000000000000000A2
:10124C000000000000000000000000000000000092
:10125C000000000000000000000000000000000082
:10126C000000000000000000000000000000000072
:10127C000000000000000000000000000000000062
:10128C000000000000000000000000000000000052
:10129C000000000000000000000000000000000042
:1012AC000000000000000000000000000000000032
:1012BC000000000000000000000000000000000022
:1012CC0001000000000000000E33CDAB34126DE6BF
:1012DC00ECDE05000B000000000000000000000028
:1012EC0000000000000000000000000000000000F2
:1012FC0000000000000000000000000000000000E2
:10130C0000000000000000000000000000000000D1
:10131C0000000000000000000000000000000000C1
:04164C007404002002
:0400000508001011CE
:00000001FF
